:1006E8002020202020414443313D25640020202043
:1006F8002020414443323D256400000000000000F2
:0407080000000000ED
:0D07AC001207B912066E7D017F0102070CD5
:10072D00E4FFFEE4FDFC0DBD00010CBC03F8BDE8CB
:0C073D00F50FBF00010EEF64C84E70E71E
:01074900228D
:1005380078387C007D007BFF7A0779027E007F0592
:1005480012042F78537C007D007BFF7A0779077EA1
:10055800007F0512042F1207ACE4F536F5377F0447
:1005680074372FF8E6FE74382FF8A60674382FF87B
:10057800E62537F537E43536F536DFE41207678FB9
:1005880038EF2537F537E43536F536FEAF377C00DA
:100598007D051204828E368F37E4F551F5527F04BB
:1005A80074522FF8E6FE74532FF8A60674532FF8EA
:1005B800E62552F552E43551F551DFE41207808FF4
:1005C80053EF2552F552E43551F551FEAF527C00F8
:1005D8007D051204828E518F52755BFF755C06751E
:1005E8005DE885365E85375F7B007A0079221200E8
:1005F8005F7D017F0112070C7B007A0079221206C9
:1006080037755BFF755C06755DF585515E85525FD4
:100618007B007A00793D12005F7D027F0112070C92
:0F0628007B007A00793D12063712072D0205611B
:0D07B900C283D282D284C286D285D287222A
:10076700C282E4FED283EF25E0FFA284E43342078E
:08077700C2830EBE0AEED2821D
:01077F002257
:10078000C285E4FED286EF25E0FFA287E43342076C
:08079000C2860EBE0AEED285FE
:01079800223E
:10066E00C2A27F031206C312074A7F031206C312E9
:10067E00074A7F021206C312074A7F281207997F84
:0E068E00061207997F0C1207997F0102079947
:10070C008F588D59C2A2E559B40108E558247FFFD2
:10071C00120799E559B40208E55824BFFF1207994E
:01072C0022AA
:0507D200D2A20207990C
:060637008B588A59895A14
:10063D00E4F55BF55CAB58AA59A95A855C82855BDC
:10064D0083120455FF1207D2055CE55C7002055B51
:10065D00AB58AA59A95AF582855B8312045570D5FA
:01066D00226A
:10074A00E4FFFEE4FDFC0DBD00010CED64C84C7035
:0C075A00F50FBF00010EEF640A4E70E7BF
:010766002270
:100799008F5DE55DC4540FFF1206C3AF5D1206C33A
:0307A90002074AFA
:1006C300D2A3C2A7C2A6C2A5C2A4EF30E002D2A49D
:1006D300EF30E102D2A5EF30E202D2A6EF30E3021F
:0506E300D2A7C2A32212
:030000000207C62E
:0C07C600787FE4F6D8FD75816B020538E1
:10035F00E709F608DFFA8046E709F208DFFA803E80
:10036F0088828C83E709F0A3DFFA8032E309F6086D
:10037F00DFFA8078E309F208DFFA807088828C83D5
:10038F00E309F0A3DFFA806489828A83E0A3F60889
:10039F00DFFA805889828A83E0A3F208DFFA804C63
:1003AF0080D280FA80C680D4806980F2803380103A
:1003BF0080A680EA809A80A880DA80E280CA8033A3
:1003CF0089828A83ECFAE493A3C8C582C8CCC5831B
:1003DF00CCF0A3C8C582C8CCC583CCDFE9DEE780EB
:1003EF000D89828A83E493A3F608DFF9ECFAA9F06A
:1003FF00EDFB2289828A83ECFAE0A3C8C582C8CCC0
:10040F00C583CCF0A3C8C582C8CCC583CCDFEADED8
:10041F00E880DB89828A83E493A3F208DFF980CC3A
:10042F0088F0EF60010E4E60C388F0ED2402B40433
:10043F000050B9F582EB2402B4040050AF232345DA
:06044F0082239003AF734D
:10045500BB010CE58229F582E5833AF583E022505C
:1004650006E92582F8E622BBFE06E92582F8E222A6
:0D047500E58229F582E5833AF583E49322C0
:10048200BC000BBE0029EF8DF084FFADF022E4CC5E
:10049200F875F008EF2FFFEE33FEEC33FCEE9DEC27
:1004A200984005FCEE9DFE0FD5F0E9E4CEFD22ED6D
:1004B200F8F5F0EE8420D21CFEADF075F008EF2FB7
:1004C200FFED33FD4007985006D5F0F222C398FDA8
:0504D2000FD5F0EA2245
:10000300E567245BF8E60567227858300702785BDA
:10001300E475F0011205020204D72000EB7F2ED213
:10002300008018EF540F2490D43440D4FF30040BD5
:10003300EF24BFB41A0050032461FFE56860021582
:1000430068056BE56B7002056A30070D7858E47537
:10005300F001120502EF0204F002069C7403D207BA
:100063008003E4C207F5678B588A59895AE4F56817
:10007300F56AF56BE56860077F2012003E80F57531
:1000830069FFC201C200C202C203C205C206C2089E
:1000930012000CFF700D3007057F0012004FAF6B8D
:1000A300AE6A22B4255FC2D5C20412000CFF24D06D
:1000B300B40A00501A75F00A786830D50508B6FFFF
:1000C3000106C6A426F620D5047002D20380D924E3
:1000D300CFB41A00EF5004C2E5D20402024FD2019A
:1000E30080C6D20080C0D20280BCD2D580BAD205ED
:1000F30080B47F2012003E2002077401B5680040DF
:10010300F1120003FF12003E020077D208D20680EC
:1001130095120003FB120003FA120003F94A4B7015
:100123000679207A037BFF20022EE568602A7E0091
:100133008E8275830012045560060EEE656970F0B9
:10014300C2D5EBC0E0EAC0E0E9C0E0EE120296D00F
:10015300E0F9D0E0FAD0E0FB1204D7FF60AAEBC0CD
:10016300E0EAC0E0E9C0E012003ED0E02401F9D0AB
:10017300E03400FAD0E0FBE5690460DCD569D9809E
:10018300877BFF7A027992D202809C791080027970
:1001930008C206C2088008D2D5790A8004790AC247
:1001A300D5E569047002F569E4FAFDFEFF12000368
:1001B300FC7B08200113120003FD7B1030000A12A0
:1001C3000003FE120003FF7B20EC3382D592D5504F
:1001D30013C3E43000069FFFE49EFEE42001039D69
:1001E300FDE49CFCE4CBF8C201EC700CCFCECDCC8B
:1001F300E824F8F870F38017C3EF33FFEE33FEED16
:1002030033FDEC33FCEB33FB994002FB0FD8E9EBF6
:10021300300105F8D0E0C448B201C0E00AEC4D4E0D
:100223004F78207B0070C2EAB5690040BCC0E01281
:100233000298D0F0D0E0200104C4C0E0C4B201C0F1
:10024300F0120027D0F0D5F0EB020077120512016F
:100253001453018E5800E54C00E14201924F019A7C
:0F02630044019A4900FA4301A0550184460184E1
:100272004501844703405000E92D00ED2E01102B6B
:1002820000F123010E2003292A00A94800000108D9
:100292003F3F3F00790AA2D5200314300509B91067
:1002A200020404B9080104A2D52006025001042068
:1002B20002689202B568005034C0E07F2030031912
:1002C2007F30A20272067205500F1202EFC202C202
:1002D20006C205C2087F30800F300503E9C0E01274
:1002E200003E300503D0E0F9D0E0B568CC30051708
:1002F2007F30B9100C12003E7F583004077F78809F
:1003020003B9080312003E3002057F2D02003E7F32
:10031200202008F87F2B2006F322920280CF286E3D
:10032200756C6C2900D2011200033001F8C2017809
:100332006830D50108F60200A92D50434958120031
:10034200032403B405004001E490033B9312002F01
:0D035200743A12002FD20375680402018E68
:1004D700BB010689828A83E0225002E722BBFE0223
:0904E700E32289828A83E4932256
:1004F000BB010689828A83F0225002F722BBFE01EB
:02050000F322E4
:10050200FAE6FB0808E6F925F0F618E6CA3AF622FA
:10051200D083D082F8E4937012740193700DA3A378
:1005220093F8740193F5828883E47374029368608C
:06053200EFA3A3A380DF8C
:10069C00EFB40A07740D1206A7740A309811A899C2
:1006AC00B8130CC2983098FDA899C298B811F630BE
:0706BC0099FDC299F5992296
:00000001FF
